{
  "_format": "hh-sol-artifact-1",
  "contractName": "MKSBT",
  "sourceName": "contracts/MKSBT.sol",
  "abi": [
    {
      "inputs": [],
      "stateMutability": "nonpayable",
      "type": "constructor"
    },
    {
      "anonymous": false,
      "inputs": [
        {
          "indexed": true,
          "internalType": "address",
          "name": "owner",
          "type": "address"
        },
        {
          "indexed": true,
          "internalType": "address",
          "name": "approved",
          "type": "address"
        },
        {
          "indexed": true,
          "internalType": "uint256",
          "name": "tokenId",
          "type": "uint256"
        }
      ],
      "name": "Approval",
      "type": "event"
    },
    {
      "anonymous": false,
      "inputs": [
        {
          "indexed": true,
          "internalType": "address",
          "name": "owner",
          "type": "address"
        },
        {
          "indexed": true,
          "internalType": "address",
          "name": "operator",
          "type": "address"
        },
        {
          "indexed": false,
          "internalType": "bool",
          "name": "approved",
          "type": "bool"
        }
      ],
      "name": "ApprovalForAll",
      "type": "event"
    },
    {
      "anonymous": false,
      "inputs": [
        {
          "indexed": true,
          "internalType": "address",
          "name": "previousOwner",
          "type": "address"
        },
        {
          "indexed": true,
          "internalType": "address",
          "name": "newOwner",
          "type": "address"
        }
      ],
      "name": "OwnershipTransferred",
      "type": "event"
    },
    {
      "anonymous": false,
      "inputs": [
        {
          "indexed": true,
          "internalType": "address",
          "name": "from",
          "type": "address"
        },
        {
          "indexed": true,
          "internalType": "address",
          "name": "to",
          "type": "address"
        },
        {
          "indexed": true,
          "internalType": "uint256",
          "name": "tokenId",
          "type": "uint256"
        }
      ],
      "name": "Transfer",
      "type": "event"
    },
    {
      "inputs": [
        {
          "internalType": "string",
          "name": "realAddress",
          "type": "string"
        }
      ],
      "name": "addAddressPrivacy",
      "outputs": [],
      "stateMutability": "nonpayable",
      "type": "function"
    },
    {
      "inputs": [
        {
          "internalType": "address",
          "name": "to",
          "type": "address"
        },
        {
          "internalType": "uint256",
          "name": "tokenId",
          "type": "uint256"
        }
      ],
      "name": "approve",
      "outputs": [],
      "stateMutability": "nonpayable",
      "type": "function"
    },
    {
      "inputs": [
        {
          "internalType": "address",
          "name": "owner",
          "type": "address"
        }
      ],
      "name": "balanceOf",
      "outputs": [
        {
          "internalType": "uint256",
          "name": "",
          "type": "uint256"
        }
      ],
      "stateMutability": "view",
      "type": "function"
    },
    {
      "inputs": [
        {
          "internalType": "uint256",
          "name": "tokenId",
          "type": "uint256"
        }
      ],
      "name": "burn",
      "outputs": [],
      "stateMutability": "nonpayable",
      "type": "function"
    },
    {
      "inputs": [
        {
          "internalType": "uint256",
          "name": "tokenId",
          "type": "uint256"
        }
      ],
      "name": "getAddress",
      "outputs": [
        {
          "internalType": "string[]",
          "name": "",
          "type": "string[]"
        }
      ],
      "stateMutability": "view",
      "type": "function"
    },
    {
      "inputs": [
        {
          "internalType": "uint256",
          "name": "tokenId",
          "type": "uint256"
        }
      ],
      "name": "getApproved",
      "outputs": [
        {
          "internalType": "address",
          "name": "",
          "type": "address"
        }
      ],
      "stateMutability": "view",
      "type": "function"
    },
    {
      "inputs": [
        {
          "internalType": "address",
          "name": "owner",
          "type": "address"
        },
        {
          "internalType": "address",
          "name": "operator",
          "type": "address"
        }
      ],
      "name": "isApprovedForAll",
      "outputs": [
        {
          "internalType": "bool",
          "name": "",
          "type": "bool"
        }
      ],
      "stateMutability": "view",
      "type": "function"
    },
    {
      "inputs": [],
      "name": "name",
      "outputs": [
        {
          "internalType": "string",
          "name": "",
          "type": "string"
        }
      ],
      "stateMutability": "view",
      "type": "function"
    },
    {
      "inputs": [],
      "name": "owner",
      "outputs": [
        {
          "internalType": "address",
          "name": "",
          "type": "address"
        }
      ],
      "stateMutability": "view",
      "type": "function"
    },
    {
      "inputs": [
        {
          "internalType": "uint256",
          "name": "tokenId",
          "type": "uint256"
        }
      ],
      "name": "ownerOf",
      "outputs": [
        {
          "internalType": "address",
          "name": "",
          "type": "address"
        }
      ],
      "stateMutability": "view",
      "type": "function"
    },
    {
      "inputs": [],
      "name": "renounceOwnership",
      "outputs": [],
      "stateMutability": "nonpayable",
      "type": "function"
    },
    {
      "inputs": [],
      "name": "safeMint",
      "outputs": [],
      "stateMutability": "nonpayable",
      "type": "function"
    },
    {
      "inputs": [
        {
          "internalType": "address",
          "name": "from",
          "type": "address"
        },
        {
          "internalType": "address",
          "name": "to",
          "type": "address"
        },
        {
          "internalType": "uint256",
          "name": "tokenId",
          "type": "uint256"
        }
      ],
      "name": "safeTransferFrom",
      "outputs": [],
      "stateMutability": "nonpayable",
      "type": "function"
    },
    {
      "inputs": [
        {
          "internalType": "address",
          "name": "from",
          "type": "address"
        },
        {
          "internalType": "address",
          "name": "to",
          "type": "address"
        },
        {
          "internalType": "uint256",
          "name": "tokenId",
          "type": "uint256"
        },
        {
          "internalType": "bytes",
          "name": "data",
          "type": "bytes"
        }
      ],
      "name": "safeTransferFrom",
      "outputs": [],
      "stateMutability": "nonpayable",
      "type": "function"
    },
    {
      "inputs": [
        {
          "internalType": "address",
          "name": "operator",
          "type": "address"
        },
        {
          "internalType": "bool",
          "name": "approved",
          "type": "bool"
        }
      ],
      "name": "setApprovalForAll",
      "outputs": [],
      "stateMutability": "nonpayable",
      "type": "function"
    },
    {
      "inputs": [
        {
          "internalType": "bytes4",
          "name": "interfaceId",
          "type": "bytes4"
        }
      ],
      "name": "supportsInterface",
      "outputs": [
        {
          "internalType": "bool",
          "name": "",
          "type": "bool"
        }
      ],
      "stateMutability": "view",
      "type": "function"
    },
    {
      "inputs": [],
      "name": "symbol",
      "outputs": [
        {
          "internalType": "string",
          "name": "",
          "type": "string"
        }
      ],
      "stateMutability": "view",
      "type": "function"
    },
    {
      "inputs": [
        {
          "internalType": "uint256",
          "name": "tokenId",
          "type": "uint256"
        }
      ],
      "name": "tokenURI",
      "outputs": [
        {
          "internalType": "string",
          "name": "",
          "type": "string"
        }
      ],
      "stateMutability": "view",
      "type": "function"
    },
    {
      "inputs": [
        {
          "internalType": "address",
          "name": "from",
          "type": "address"
        },
        {
          "internalType": "address",
          "name": "to",
          "type": "address"
        },
        {
          "internalType": "uint256",
          "name": "tokenId",
          "type": "uint256"
        }
      ],
      "name": "transferFrom",
      "outputs": [],
      "stateMutability": "nonpayable",
      "type": "function"
    },
    {
      "inputs": [
        {
          "internalType": "address",
          "name": "newOwner",
          "type": "address"
        }
      ],
      "name": "transferOwnership",
      "outputs": [],
      "stateMutability": "nonpayable",
      "type": "function"
    }
  ],
  "bytecode": "0x60806040523480156200001157600080fd5b506040518060400160405280600581526020017f4d4b5342540000000000000000000000000000000000000000000000000000008152506040518060400160405280600281526020017f4d4b00000000000000000000000000000000000000000000000000000000000081525081600090816200008f919062000412565b508060019081620000a1919062000412565b505050620000c4620000b8620000ca60201b60201c565b620000d260201b60201c565b620004f9565b600033905090565b6000600660009054906101000a900473ffffffffffffffffffffffffffffffffffffffff16905081600660006101000a81548173ffffffffffffffffffffffffffffffffffffffff021916908373ffffffffffffffffffffffffffffffffffffffff1602179055508173ffffffffffffffffffffffffffffffffffffffff168173ffffffffffffffffffffffffffffffffffffffff167f8be0079c531659141344cd1fd0a4f28419497f9722a3daafe3b4186f6b6457e060405160405180910390a35050565b600081519050919050565b7f4e487b7100000000000000000000000000000000000000000000000000000000600052604160045260246000fd5b7f4e487b7100000000000000000000000000000000000000000000000000000000600052602260045260246000fd5b600060028204905060018216806200021a57607f821691505b60208210810362000230576200022f620001d2565b5b50919050565b60008190508160005260206000209050919050565b60006020601f8301049050919050565b600082821b905092915050565b6000600883026200029a7fffffffffffffffffffffffffffffffffffffffffffffffffffffffffffffffff826200025b565b620002a686836200025b565b95508019841693508086168417925050509392505050565b6000819050919050565b6000819050919050565b6000620002f3620002ed620002e784620002be565b620002c8565b620002be565b9050919050565b6000819050919050565b6200030f83620002d2565b620003276200031e82620002fa565b84845462000268565b825550505050565b600090565b6200033e6200032f565b6200034b81848462000304565b505050565b5b8181101562000373576200036760008262000334565b60018101905062000351565b5050565b601f821115620003c2576200038c8162000236565b62000397846200024b565b81016020851015620003a7578190505b620003bf620003b6856200024b565b83018262000350565b50505b505050565b600082821c905092915050565b6000620003e760001984600802620003c7565b1980831691505092915050565b6000620004028383620003d4565b9150826002028217905092915050565b6200041d8262000198565b67ffffffffffffffff811115620004395762000438620001a3565b5b62000445825462000201565b6200045282828562000377565b600060209050601f8311600181146200048a576000841562000475578287015190505b620004818582620003f4565b865550620004f1565b601f1984166200049a8662000236565b60005b82811015620004c4578489015182556001820191506020850194506020810190506200049d565b86831015620004e45784890151620004e0601f891682620003d4565b8355505b6001600288020188555050505b505050505050565b61346980620005096000396000f3fe608060405234801561001057600080fd5b506004361061012c5760003560e01c806370a08231116100ad578063b88d4fde11610071578063b88d4fde14610307578063b93f9b0a14610323578063c87b56dd14610353578063e985e9c514610383578063f2fde38b146103b35761012c565b806370a0823114610275578063715018a6146102a55780638da5cb5b146102af57806395d89b41146102cd578063a22cb465146102eb5761012c565b806342842e0e116100f457806342842e0e146101e757806342966c68146102035780636352211e1461021f578063656f8de21461024f5780636871ee401461026b5761012c565b806301ffc9a71461013157806306fdde0314610161578063081812fc1461017f578063095ea7b3146101af57806323b872dd146101cb575b600080fd5b61014b60048036038101906101469190611f89565b6103cf565b6040516101589190611fd1565b60405180910390f35b6101696104b1565b604051610176919061207c565b60405180910390f35b610199600480360381019061019491906120d4565b610543565b6040516101a69190612142565b60405180910390f35b6101c960048036038101906101c49190612189565b610589565b005b6101e560048036038101906101e091906121c9565b6106a0565b005b61020160048036038101906101fc91906121c9565b610700565b005b61021d600480360381019061021891906120d4565b610720565b005b610239600480360381019061023491906120d4565b6107a2565b6040516102469190612142565b60405180910390f35b61026960048036038101906102649190612351565b610828565b005b6102736108fb565b005b61028f600480360381019061028a919061239a565b61096b565b60405161029c91906123d6565b60405180910390f35b6102ad610a22565b005b6102b7610a36565b6040516102c49190612142565b60405180910390f35b6102d5610a60565b6040516102e2919061207c565b60405180910390f35b6103056004803603810190610300919061241d565b610af2565b005b610321600480360381019061031c91906124fe565b610b08565b005b61033d600480360381019061033891906120d4565b610b6a565b60405161034a919061268d565b60405180910390f35b61036d600480360381019061036891906120d4565b610c56565b60405161037a919061207c565b60405180910390f35b61039d600480360381019061039891906126af565b610cbe565b6040516103aa9190611fd1565b60405180910390f35b6103cd60048036038101906103c8919061239a565b610d52565b005b60007f80ac58cd000000000000000000000000000000000000000000000000000000007bffffffffffffffffffffffffffffffffffffffffffffffffffffffff1916827bffffffffffffffffffffffffffffffffffffffffffffffffffffffff1916148061049a57507f5b5e139f000000000000000000000000000000000000000000000000000000007bffffffffffffffffffffffffffffffffffffffffffffffffffffffff1916827bffffffffffffffffffffffffffffffffffffffffffffffffffffffff1916145b806104aa57506104a982610dd5565b5b9050919050565b6060600080546104c09061271e565b80601f01602080910402602001604051908101604052809291908181526020018280546104ec9061271e565b80156105395780601f1061050e57610100808354040283529160200191610539565b820191906000526020600020905b81548152906001019060200180831161051c57829003601f168201915b5050505050905090565b600061054e82610e3f565b6004600083815260200190815260200160002060009054906101000a900473ffffffffffffffffffffffffffffffffffffffff169050919050565b6000610594826107a2565b90508073ffffffffffffffffffffffffffffffffffffffff168373ffffffffffffffffffffffffffffffffffffffff1603610604576040517f08c379a00000000000000000000000000000000000000000000000000000000081526004016105fb906127c1565b60405180910390fd5b8073ffffffffffffffffffffffffffffffffffffffff16610623610e8a565b73ffffffffffffffffffffffffffffffffffffffff16148061065257506106518161064c610e8a565b610cbe565b5b610691576040517f08c379a000000000000000000000000000000000000000000000000000000000815260040161068890612853565b60405180910390fd5b61069b8383610e92565b505050565b6106b16106ab610e8a565b82610f4b565b6106f0576040517f08c379a00000000000000000000000000000000000000000000000000000000081526004016106e7906128e5565b60405180910390fd5b6106fb838383610fe0565b505050565b61071b83838360405180602001604052806000815250610b08565b505050565b3373ffffffffffffffffffffffffffffffffffffffff16610740826107a2565b73ffffffffffffffffffffffffffffffffffffffff1614610796576040517f08c379a000000000000000000000000000000000000000000000000000000000815260040161078d90612977565b60405180910390fd5b61079f816112d9565b50565b6000806107ae836112e5565b9050600073ffffffffffffffffffffffffffffffffffffffff168173ffffffffffffffffffffffffffffffffffffffff160361081f576040517f08c379a0000000000000000000000000000000000000000000000000000000008152600401610816906129e3565b60405180910390fd5b80915050919050565b60016108333361096b565b14610873576040517f08c379a000000000000000000000000000000000000000000000000000000000815260040161086a90612a75565b60405180910390fd5b60086000600960003373ffffffffffffffffffffffffffffffffffffffff1673ffffffffffffffffffffffffffffffffffffffff168152602001908152602001600020548152602001908152602001600020819080600181540180825580915050600190039060005260206000200160009091909190915090816108f79190612c41565b5050565b60006109063361096b565b14610946576040517f08c379a000000000000000000000000000000000000000000000000000000000815260040161093d90612d5f565b60405180910390fd5b60006109526007611322565b905061095e6007611330565b6109683382611346565b50565b60008073ffffffffffffffffffffffffffffffffffffffff168273ffffffffffffffffffffffffffffffffffffffff16036109db576040517f08c379a00000000000000000000000000000000000000000000000000000000081526004016109d290612df1565b60405180910390fd5b600360008373ffffffffffffffffffffffffffffffffffffffff1673ffffffffffffffffffffffffffffffffffffffff168152602001908152602001600020549050919050565b610a2a611364565b610a3460006113e2565b565b6000600660009054906101000a900473ffffffffffffffffffffffffffffffffffffffff16905090565b606060018054610a6f9061271e565b80601f0160208091040260200160405190810160405280929190818152602001828054610a9b9061271e565b8015610ae85780601f10610abd57610100808354040283529160200191610ae8565b820191906000526020600020905b815481529060010190602001808311610acb57829003601f168201915b5050505050905090565b610b04610afd610e8a565b83836114a8565b5050565b610b19610b13610e8a565b83610f4b565b610b58576040517f08c379a0000000000000000000000000000000000000000000000000000000008152600401610b4f906128e5565b60405180910390fd5b610b6484848484611614565b50505050565b606060086000838152602001908152602001600020805480602002602001604051908101604052809291908181526020016000905b82821015610c4b578382906000526020600020018054610bbe9061271e565b80601f0160208091040260200160405190810160405280929190818152602001828054610bea9061271e565b8015610c375780601f10610c0c57610100808354040283529160200191610c37565b820191906000526020600020905b815481529060010190602001808311610c1a57829003601f168201915b505050505081526020019060010190610b9f565b505050509050919050565b6060610c6182610e3f565b6000610c6b611670565b90506000815111610c8b5760405180602001604052806000815250610cb6565b80610c9584611687565b604051602001610ca6929190612e4d565b6040516020818303038152906040525b915050919050565b6000600560008473ffffffffffffffffffffffffffffffffffffffff1673ffffffffffffffffffffffffffffffffffffffff16815260200190815260200160002060008373ffffffffffffffffffffffffffffffffffffffff1673ffffffffffffffffffffffffffffffffffffffff16815260200190815260200160002060009054906101000a900460ff16905092915050565b610d5a611364565b600073ffffffffffffffffffffffffffffffffffffffff168173ffffffffffffffffffffffffffffffffffffffff1603610dc9576040517f08c379a0000000000000000000000000000000000000000000000000000000008152600401610dc090612ee3565b60405180910390fd5b610dd2816113e2565b50565b60007f01ffc9a7000000000000000000000000000000000000000000000000000000007bffffffffffffffffffffffffffffffffffffffffffffffffffffffff1916827bffffffffffffffffffffffffffffffffffffffffffffffffffffffff1916149050919050565b610e4881611755565b610e87576040517f08c379a0000000000000000000000000000000000000000000000000000000008152600401610e7e906129e3565b60405180910390fd5b50565b600033905090565b816004600083815260200190815260200160002060006101000a81548173ffffffffffffffffffffffffffffffffffffffff021916908373ffffffffffffffffffffffffffffffffffffffff160217905550808273ffffffffffffffffffffffffffffffffffffffff16610f05836107a2565b73ffffffffffffffffffffffffffffffffffffffff167f8c5be1e5ebec7d5bd14f71427d1e84f3dd0314c0f7b2291e5b200ac8c7c3b92560405160405180910390a45050565b600080610f57836107a2565b90508073ffffffffffffffffffffffffffffffffffffffff168473ffffffffffffffffffffffffffffffffffffffff161480610f995750610f988185610cbe565b5b80610fd757508373ffffffffffffffffffffffffffffffffffffffff16610fbf84610543565b73ffffffffffffffffffffffffffffffffffffffff16145b91505092915050565b8273ffffffffffffffffffffffffffffffffffffffff16611000826107a2565b73ffffffffffffffffffffffffffffffffffffffff1614611056576040517f08c379a000000000000000000000000000000000000000000000000000000000815260040161104d90612f75565b60405180910390fd5b600073ffffffffffffffffffffffffffffffffffffffff168273ffffffffffffffffffffffffffffffffffffffff16036110c5576040517f08c379a00000000000000000000000000000000000000000000000000000000081526004016110bc90613007565b60405180910390fd5b6110d28383836001611796565b8273ffffffffffffffffffffffffffffffffffffffff166110f2826107a2565b73ffffffffffffffffffffffffffffffffffffffff1614611148576040517f08c379a000000000000000000000000000000000000000000000000000000000815260040161113f90612f75565b60405180910390fd5b6004600082815260200190815260200160002060006101000a81549073ffffffffffffffffffffffffffffffffffffffff02191690556001600360008573ffffffffffffffffffffffffffffffffffffffff1673ffffffffffffffffffffffffffffffffffffffff168152602001908152602001600020600082825403925050819055506001600360008473ffffffffffffffffffffffffffffffffffffffff1673ffffffffffffffffffffffffffffffffffffffff16815260200190815260200160002060008282540192505081905550816002600083815260200190815260200160002060006101000a81548173ffffffffffffffffffffffffffffffffffffffff021916908373ffffffffffffffffffffffffffffffffffffffff160217905550808273ffffffffffffffffffffffffffffffffffffffff168473ffffffffffffffffffffffffffffffffffffffff167fddf252ad1be2c89b69c2b068fc378daa952ba7f163c4a11628f55a4df523b3ef60405160405180910390a46112d4838383600161184e565b505050565b6112e281611854565b50565b60006002600083815260200190815260200160002060009054906101000a900473ffffffffffffffffffffffffffffffffffffffff169050919050565b600081600001549050919050565b6001816000016000828254019250508190555050565b6113608282604051806020016040528060008152506119a2565b5050565b61136c610e8a565b73ffffffffffffffffffffffffffffffffffffffff1661138a610a36565b73ffffffffffffffffffffffffffffffffffffffff16146113e0576040517f08c379a00000000000000000000000000000000000000000000000000000000081526004016113d790613073565b60405180910390fd5b565b6000600660009054906101000a900473ffffffffffffffffffffffffffffffffffffffff16905081600660006101000a81548173ffffffffffffffffffffffffffffffffffffffff021916908373ffffffffffffffffffffffffffffffffffffffff1602179055508173ffffffffffffffffffffffffffffffffffffffff168173ffffffffffffffffffffffffffffffffffffffff167f8be0079c531659141344cd1fd0a4f28419497f9722a3daafe3b4186f6b6457e060405160405180910390a35050565b8173ffffffffffffffffffffffffffffffffffffffff168373ffffffffffffffffffffffffffffffffffffffff1603611516576040517f08c379a000000000000000000000000000000000000000000000000000000000815260040161150d906130df565b60405180910390fd5b80600560008573ffffffffffffffffffffffffffffffffffffffff1673ffffffffffffffffffffffffffffffffffffffff16815260200190815260200160002060008473ffffffffffffffffffffffffffffffffffffffff1673ffffffffffffffffffffffffffffffffffffffff16815260200190815260200160002060006101000a81548160ff0219169083151502179055508173ffffffffffffffffffffffffffffffffffffffff168373ffffffffffffffffffffffffffffffffffffffff167f17307eab39ab6107e8899845ad3d59bd9653f200f220920489ca2b5937696c31836040516116079190611fd1565b60405180910390a3505050565b61161f848484610fe0565b61162b848484846119fd565b61166a576040517f08c379a000000000000000000000000000000000000000000000000000000000815260040161166190613171565b60405180910390fd5b50505050565b606060405180602001604052806000815250905090565b60606000600161169684611b84565b01905060008167ffffffffffffffff8111156116b5576116b4612226565b5b6040519080825280601f01601f1916602001820160405280156116e75781602001600182028036833780820191505090505b509050600082602001820190505b60011561174a578080600190039150507f3031323334353637383961626364656600000000000000000000000000000000600a86061a8153600a858161173e5761173d613191565b5b049450600085036116f5575b819350505050919050565b60008073ffffffffffffffffffffffffffffffffffffffff16611777836112e5565b73ffffffffffffffffffffffffffffffffffffffff1614159050919050565b6117a284848484611cd7565b600073ffffffffffffffffffffffffffffffffffffffff168473ffffffffffffffffffffffffffffffffffffffff1614806118095750600073ffffffffffffffffffffffffffffffffffffffff168373ffffffffffffffffffffffffffffffffffffffff16145b611848576040517f08c379a000000000000000000000000000000000000000000000000000000000815260040161183f90613258565b60405180910390fd5b50505050565b50505050565b600061185f826107a2565b905061186f816000846001611796565b611878826107a2565b90506004600083815260200190815260200160002060006101000a81549073ffffffffffffffffffffffffffffffffffffffff02191690556001600360008373ffffffffffffffffffffffffffffffffffffffff1673ffffffffffffffffffffffffffffffffffffffff168152602001908152602001600020600082825403925050819055506002600083815260200190815260200160002060006101000a81549073ffffffffffffffffffffffffffffffffffffffff021916905581600073ffffffffffffffffffffffffffffffffffffffff168273ffffffffffffffffffffffffffffffffffffffff167fddf252ad1be2c89b69c2b068fc378daa952ba7f163c4a11628f55a4df523b3ef60405160405180910390a461199e81600084600161184e565b5050565b6119ac8383611cdd565b6119b960008484846119fd565b6119f8576040517f08c379a00000000000000000000000000000000000000000000000000000000081526004016119ef90613171565b60405180910390fd5b505050565b6000611a1e8473ffffffffffffffffffffffffffffffffffffffff16611efa565b15611b77578373ffffffffffffffffffffffffffffffffffffffff1663150b7a02611a47610e8a565b8786866040518563ffffffff1660e01b8152600401611a6994939291906132cd565b6020604051808303816000875af1925050508015611aa557506040513d601f19601f82011682018060405250810190611aa2919061332e565b60015b611b27573d8060008114611ad5576040519150601f19603f3d011682016040523d82523d6000602084013e611ada565b606091505b506000815103611b1f576040517f08c379a0000000000000000000000000000000000000000000000000000000008152600401611b1690613171565b60405180910390fd5b805181602001fd5b63150b7a0260e01b7bffffffffffffffffffffffffffffffffffffffffffffffffffffffff1916817bffffffffffffffffffffffffffffffffffffffffffffffffffffffff191614915050611b7c565b600190505b949350505050565b600080600090507a184f03e93ff9f4daa797ed6e38ed64bf6a1f0100000000000000008310611be2577a184f03e93ff9f4daa797ed6e38ed64bf6a1f0100000000000000008381611bd857611bd7613191565b5b0492506040810190505b6d04ee2d6d415b85acef81000000008310611c1f576d04ee2d6d415b85acef81000000008381611c1557611c14613191565b5b0492506020810190505b662386f26fc100008310611c4e57662386f26fc100008381611c4457611c43613191565b5b0492506010810190505b6305f5e1008310611c77576305f5e1008381611c6d57611c6c613191565b5b0492506008810190505b6127108310611c9c576127108381611c9257611c91613191565b5b0492506004810190505b60648310611cbf5760648381611cb557611cb4613191565b5b0492506002810190505b600a8310611cce576001810190505b80915050919050565b50505050565b600073ffffffffffffffffffffffffffffffffffffffff168273ffffffffffffffffffffffffffffffffffffffff1603611d4c576040517f08c379a0000000000000000000000000000000000000000000000000000000008152600401611d43906133a7565b60405180910390fd5b611d5581611755565b15611d95576040517f08c379a0000000000000000000000000000000000000000000000000000000008152600401611d8c90613413565b60405180910390fd5b611da3600083836001611796565b611dac81611755565b15611dec576040517f08c379a0000000000000000000000000000000000000000000000000000000008152600401611de390613413565b60405180910390fd5b6001600360008473ffffffffffffffffffffffffffffffffffffffff1673ffffffffffffffffffffffffffffffffffffffff16815260200190815260200160002060008282540192505081905550816002600083815260200190815260200160002060006101000a81548173ffffffffffffffffffffffffffffffffffffffff021916908373ffffffffffffffffffffffffffffffffffffffff160217905550808273ffffffffffffffffffffffffffffffffffffffff16600073ffffffffffffffffffffffffffffffffffffffff167fddf252ad1be2c89b69c2b068fc378daa952ba7f163c4a11628f55a4df523b3ef60405160405180910390a4611ef660008383600161184e565b5050565b6000808273ffffffffffffffffffffffffffffffffffffffff163b119050919050565b6000604051905090565b600080fd5b600080fd5b60007fffffffff0000000000000000000000000000000000000000000000000000000082169050919050565b611f6681611f31565b8114611f7157600080fd5b50565b600081359050611f8381611f5d565b92915050565b600060208284031215611f9f57611f9e611f27565b5b6000611fad84828501611f74565b91505092915050565b60008115159050919050565b611fcb81611fb6565b82525050565b6000602082019050611fe66000830184611fc2565b92915050565b600081519050919050565b600082825260208201905092915050565b60005b8381101561202657808201518184015260208101905061200b565b60008484015250505050565b6000601f19601f8301169050919050565b600061204e82611fec565b6120588185611ff7565b9350612068818560208601612008565b61207181612032565b840191505092915050565b600060208201905081810360008301526120968184612043565b905092915050565b6000819050919050565b6120b18161209e565b81146120bc57600080fd5b50565b6000813590506120ce816120a8565b92915050565b6000602082840312156120ea576120e9611f27565b5b60006120f8848285016120bf565b91505092915050565b600073ffffffffffffffffffffffffffffffffffffffff82169050919050565b600061212c82612101565b9050919050565b61213c81612121565b82525050565b60006020820190506121576000830184612133565b92915050565b61216681612121565b811461217157600080fd5b50565b6000813590506121838161215d565b92915050565b600080604083850312156121a05761219f611f27565b5b60006121ae85828601612174565b92505060206121bf858286016120bf565b9150509250929050565b6000806000606084860312156121e2576121e1611f27565b5b60006121f086828701612174565b935050602061220186828701612174565b9250506040612212868287016120bf565b9150509250925092565b600080fd5b600080fd5b7f4e487b7100000000000000000000000000000000000000000000000000000000600052604160045260246000fd5b61225e82612032565b810181811067ffffffffffffffff8211171561227d5761227c612226565b5b80604052505050565b6000612290611f1d565b905061229c8282612255565b919050565b600067ffffffffffffffff8211156122bc576122bb612226565b5b6122c582612032565b9050602081019050919050565b82818337600083830152505050565b60006122f46122ef846122a1565b612286565b9050828152602081018484840111156123105761230f612221565b5b61231b8482856122d2565b509392505050565b600082601f8301126123385761233761221c565b5b81356123488482602086016122e1565b91505092915050565b60006020828403121561236757612366611f27565b5b600082013567ffffffffffffffff81111561238557612384611f2c565b5b61239184828501612323565b91505092915050565b6000602082840312156123b0576123af611f27565b5b60006123be84828501612174565b91505092915050565b6123d08161209e565b82525050565b60006020820190506123eb60008301846123c7565b92915050565b6123fa81611fb6565b811461240557600080fd5b50565b600081359050612417816123f1565b92915050565b6000806040838503121561243457612433611f27565b5b600061244285828601612174565b925050602061245385828601612408565b9150509250929050565b600067ffffffffffffffff82111561247857612477612226565b5b61248182612032565b9050602081019050919050565b60006124a161249c8461245d565b612286565b9050828152602081018484840111156124bd576124bc612221565b5b6124c88482856122d2565b509392505050565b600082601f8301126124e5576124e461221c565b5b81356124f584826020860161248e565b91505092915050565b6000806000806080858703121561251857612517611f27565b5b600061252687828801612174565b945050602061253787828801612174565b9350506040612548878288016120bf565b925050606085013567ffffffffffffffff81111561256957612568611f2c565b5b612575878288016124d0565b91505092959194509250565b600081519050919050565b600082825260208201905092915050565b6000819050602082019050919050565b600082825260208201905092915050565b60006125c982611fec565b6125d381856125ad565b93506125e3818560208601612008565b6125ec81612032565b840191505092915050565b600061260383836125be565b905092915050565b6000602082019050919050565b600061262382612581565b61262d818561258c565b93508360208202850161263f8561259d565b8060005b8581101561267b578484038952815161265c85826125f7565b94506126678361260b565b925060208a01995050600181019050612643565b50829750879550505050505092915050565b600060208201905081810360008301526126a78184612618565b905092915050565b600080604083850312156126c6576126c5611f27565b5b60006126d485828601612174565b92505060206126e585828601612174565b9150509250929050565b7f4e487b7100000000000000000000000000000000000000000000000000000000600052602260045260246000fd5b6000600282049050600182168061273657607f821691505b602082108103612749576127486126ef565b5b50919050565b7f4552433732313a20617070726f76616c20746f2063757272656e74206f776e6560008201527f7200000000000000000000000000000000000000000000000000000000000000602082015250565b60006127ab602183611ff7565b91506127b68261274f565b604082019050919050565b600060208201905081810360008301526127da8161279e565b9050919050565b7f4552433732313a20617070726f76652063616c6c6572206973206e6f7420746f60008201527f6b656e206f776e6572206f7220617070726f76656420666f7220616c6c000000602082015250565b600061283d603d83611ff7565b9150612848826127e1565b604082019050919050565b6000602082019050818103600083015261286c81612830565b9050919050565b7f4552433732313a2063616c6c6572206973206e6f7420746f6b656e206f776e6560008201527f72206f7220617070726f76656400000000000000000000000000000000000000602082015250565b60006128cf602d83611ff7565b91506128da82612873565b604082019050919050565b600060208201905081810360008301526128fe816128c2565b9050919050565b7f4f6e6c7920746865206f776e6572206f662074686520746f6b656e2063616e2060008201527f6275726e2069742e000000000000000000000000000000000000000000000000602082015250565b6000612961602883611ff7565b915061296c82612905565b604082019050919050565b6000602082019050818103600083015261299081612954565b9050919050565b7f4552433732313a20696e76616c696420746f6b656e2049440000000000000000600082015250565b60006129cd601883611ff7565b91506129d882612997565b602082019050919050565b600060208201905081810360008301526129fc816129c0565b9050919050565b7f596f752063616e277420616464206164647265737320746f206f74686572732760008201527f2053425400000000000000000000000000000000000000000000000000000000602082015250565b6000612a5f602483611ff7565b9150612a6a82612a03565b604082019050919050565b60006020820190508181036000830152612a8e81612a52565b9050919050565b60008190508160005260206000209050919050565b60006020601f8301049050919050565b600082821b905092915050565b600060088302612af77fffffffffffffffffffffffffffffffffffffffffffffffffffffffffffffffff82612aba565b612b018683612aba565b95508019841693508086168417925050509392505050565b6000819050919050565b6000612b3e612b39612b348461209e565b612b19565b61209e565b9050919050565b6000819050919050565b612b5883612b23565b612b6c612b6482612b45565b848454612ac7565b825550505050565b600090565b612b81612b74565b612b8c818484612b4f565b505050565b5b81811015612bb057612ba5600082612b79565b600181019050612b92565b5050565b601f821115612bf557612bc681612a95565b612bcf84612aaa565b81016020851015612bde578190505b612bf2612bea85612aaa565b830182612b91565b50505b505050565b600082821c905092915050565b6000612c1860001984600802612bfa565b1980831691505092915050565b6000612c318383612c07565b9150826002028217905092915050565b612c4a82611fec565b67ffffffffffffffff811115612c6357612c62612226565b5b612c6d825461271e565b612c78828285612bb4565b600060209050601f831160018114612cab5760008415612c99578287015190505b612ca38582612c25565b865550612d0b565b601f198416612cb986612a95565b60005b82811015612ce157848901518255600182019150602085019450602081019050612cbc565b86831015612cfe5784890151612cfa601f891682612c07565b8355505b6001600288020188555050505b505050505050565b7f596f752068617665206d696e7420746865205342540000000000000000000000600082015250565b6000612d49601583611ff7565b9150612d5482612d13565b602082019050919050565b60006020820190508181036000830152612d7881612d3c565b9050919050565b7f4552433732313a2061646472657373207a65726f206973206e6f74206120766160008201527f6c6964206f776e65720000000000000000000000000000000000000000000000602082015250565b6000612ddb602983611ff7565b9150612de682612d7f565b604082019050919050565b60006020820190508181036000830152612e0a81612dce565b9050919050565b600081905092915050565b6000612e2782611fec565b612e318185612e11565b9350612e41818560208601612008565b80840191505092915050565b6000612e598285612e1c565b9150612e658284612e1c565b91508190509392505050565b7f4f776e61626c653a206e6577206f776e657220697320746865207a65726f206160008201527f6464726573730000000000000000000000000000000000000000000000000000602082015250565b6000612ecd602683611ff7565b9150612ed882612e71565b604082019050919050565b60006020820190508181036000830152612efc81612ec0565b9050919050565b7f4552433732313a207472616e736665722066726f6d20696e636f72726563742060008201527f6f776e6572000000000000000000000000000000000000000000000000000000602082015250565b6000612f5f602583611ff7565b9150612f6a82612f03565b604082019050919050565b60006020820190508181036000830152612f8e81612f52565b9050919050565b7f4552433732313a207472616e7366657220746f20746865207a65726f2061646460008201527f7265737300000000000000000000000000000000000000000000000000000000602082015250565b6000612ff1602483611ff7565b9150612ffc82612f95565b604082019050919050565b6000602082019050818103600083015261302081612fe4565b9050919050565b7f4f776e61626c653a2063616c6c6572206973206e6f7420746865206f776e6572600082015250565b600061305d602083611ff7565b915061306882613027565b602082019050919050565b6000602082019050818103600083015261308c81613050565b9050919050565b7f4552433732313a20617070726f766520746f2063616c6c657200000000000000600082015250565b60006130c9601983611ff7565b91506130d482613093565b602082019050919050565b600060208201905081810360008301526130f8816130bc565b9050919050565b7f4552433732313a207472616e7366657220746f206e6f6e20455243373231526560008201527f63656976657220696d706c656d656e7465720000000000000000000000000000602082015250565b600061315b603283611ff7565b9150613166826130ff565b604082019050919050565b6000602082019050818103600083015261318a8161314e565b9050919050565b7f4e487b7100000000000000000000000000000000000000000000000000000000600052601260045260246000fd5b7f54686973206120536f756c626f756e6420746f6b656e2e2049742063616e6e6f60008201527f74206265207472616e736665727265642e2049742063616e206f6e6c7920626560208201527f206275726e65642062792074686520746f6b656e206f776e65722e0000000000604082015250565b6000613242605b83611ff7565b915061324d826131c0565b606082019050919050565b6000602082019050818103600083015261327181613235565b9050919050565b600081519050919050565b600082825260208201905092915050565b600061329f82613278565b6132a98185613283565b93506132b9818560208601612008565b6132c281612032565b840191505092915050565b60006080820190506132e26000830187612133565b6132ef6020830186612133565b6132fc60408301856123c7565b818103606083015261330e8184613294565b905095945050505050565b60008151905061332881611f5d565b92915050565b60006020828403121561334457613343611f27565b5b600061335284828501613319565b91505092915050565b7f4552433732313a206d696e7420746f20746865207a65726f2061646472657373600082015250565b6000613391602083611ff7565b915061339c8261335b565b602082019050919050565b600060208201905081810360008301526133c081613384565b9050919050565b7f4552433732313a20746f6b656e20616c7265616479206d696e74656400000000600082015250565b60006133fd601c83611ff7565b9150613408826133c7565b602082019050919050565b6000602082019050818103600083015261342c816133f0565b905091905056fea26469706673582212207cdc216e1d2336c282e6f9ddd71a6852c51054280521cac9451bdcaafca3365264736f6c63430008120033",
  "linkReferences": {},
  "deployedLinkReferences": {}
}